:100000000C942A000C9447000C9447000C94470071
:100010000C9447000C9447000C9447000C94E01596
:100020000C9447000C9447000C9447000C94470034
:100030000C9447000C9447000C9447000C94470024
:100040000C9447000C9447000C9447000C94470014
:100050000C94470011241FBECFE5D8E0DEBFCDBF12
:1000600010E0A0E6B0E0ECEAF4E602C005900D92E4
:10007000A03CB107D9F717E0A0ECB0E001C01D9299
:10008000A731B107E1F70E94F2120C9454320C949C
:100090000000DF93CF93CDB7DEB72C970FB6F8945F
:1000A000DEBF0FBECDBF8091AC00282F30E03C8773
:1000B0002B878B859C8581309105C1F02B853C85F4
:1000C0002230310511F18B859C85009769F5A7E2F7
:1000D000B0E0E7E2F0E080818F778C93A7E2B0E0B8
:1000E000E7E2F0E080818F7B8C932CC0A7E2B0E048
:1000F000E7E2F0E080818F778C93A7E2B0E0E7E25F
:10010000F0E0808180648C931DC0A7E2B0E0E7E25C
:10011000F0E0808180688C93A7E2B0E0E7E2F0E055
:10012000808180648C930EC0A7E2B0E0E7E2F0E04B
:1001300080818F778C93A7E2B0E0E7E2F0E08081E6
:100140008F7B8C938091AD00282F30E03A872987F0
:1001500089859A85009731F029853A8521303105C6
:1001600049F010C0A7E2B0E0E7E2F0E080818F7DC7
:100170008C930FC0A7E2B0E0E7E2F0E080818062FC
:100180008C9307C0A7E2B0E0E7E2F0E080818F7DCA
:100190008C938091AE00282F30E038872F838F8199
:1001A00098858330910509F49BC02F8138852430D0
:1001B00031058CF48F8198858130910509F448C010
:1001C0002F813885223031050CF066C08F819885EB
:1001D0000097D1F038C12F8138852530310509F4D9
:1001E000C7C08F819885853091050CF49DC02F8103
:1001F00038852630310509F4DFC08F819885873036
:10020000910509F4FDC01FC1A7E2B0E0E7E2F0E00C
:1002100080818F7E8C93A7E2B0E0E7E2F0E08081FE
:10022000877F8C93A7E2B0E0E7E2F0E080818B7FEC
:100230008C93A7E2B0E0E7E2F0E080818D7F8C93C1
:10024000A7E2B0E0E7E2F0E080818E7F8C93FBC014
:10025000A7E2B0E0E7E2F0E080818F7E8C93A7E236
:10026000B0E0E7E2F0E08081877F8C93A7E2B0E026
:10027000E7E2F0E080818B7F8C93A7E2B0E0E7E2D9
:10028000F0E080818D7F8C93A7E2B0E0E7E2F0E0C0
:10029000808181608C93D7C0A7E2B0E0E7E2F0E014
:1002A00080818F7E8C93A7E2B0E0E7E2F0E080816E
:1002B000877F8C93A7E2B0E0E7E2F0E080818B7F5C
:1002C0008C93A7E2B0E0E7E2F0E0808182608C935B
:1002D000A7E2B0E0E7E2F0E080818E7F8C93B3C0CC
:1002E000A7E2B0E0E7E2F0E080818F7E8C93A7E2A6
:1002F000B0E0E7E2F0E08081877F8C93A7E2B0E096
:10030000E7E2F0E080818B7F8C93A7E2B0E0E7E248
:10031000F0E0808182608C93A7E2B0E0E7E2F0E059
:10032000808181608C938FC0A7E2B0E0E7E2F0E0CB
:1003300080818F7E8C93A7E2B0E0E7E2F0E08081DD
:10034000877F8C93A7E2B0E0E7E2F0E080818460F1
:100350008C93A7E2B0E0E7E2F0E080818D7F8C93A0
:10036000A7E2B0E0E7E2F0E080818E7F8C936BC083
:10037000A7E2B0E0E7E2F0E080818F7E8C93A7E215
:10038000B0E0E7E2F0E08081877F8C93A7E2B0E005
:10039000E7E2F0E0808184608C93A7E2B0E0E7E2DE
:1003A000F0E080818D7F8C93A7E2B0E0E7E2F0E09F
:1003B000808181608C9347C0A7E2B0E0E7E2F0E083
:1003C00080818F7E8C93A7E2B0E0E7E2F0E080814D
:1003D000877F8C93A7E2B0E0E7E2F0E08081846061
:1003E0008C93A7E2B0E0E7E2F0E0808182608C933A
:1003F000A7E2B0E0E7E2F0E080818E7F8C9323C03B
:10040000A7E2B0E0E7E2F0E080818F7E8C93A7E284
:10041000B0E0E7E2F0E08081877F8C93A7E2B0E074
:10042000E7E2F0E0808184608C93A7E2B0E0E7E24D
:10043000F0E0808182608C93A7E2B0E0E7E2F0E038
:10044000808181608C93A6E2B0E0E6E2F0E08081FA
:1004500080688C93A6E2B0E0E6E2F0E080818F7BDA
:100460008C938091B100282F30E03E832D838D81C5
:100470009E81009731F02D813E812130310549F078
:100480000FC0A6E2B0E0E6E2F0E08081877F8C93C7
:1004900007C0A6E2B0E0E6E2F0E0808188608C93DD
:1004A0008091AF00282F30E03C832B838B819C818F
:1004B0008330910509F470C02B813C8124303105D3
:1004C00084F48B819C8181309105D1F12B813C8119
:1004D000223031050CF04AC08B819C810097D1F00D
:1004E000C9C02B813C812530310509F481C08B8145
:1004F0009C81853091050CF465C02B813C812630B0
:10050000310509F48BC08B819C818730910509F4FA
:100510009BC0B0C0A6E2B0E0E6E2F0E080818B7F55
:100520008C93A6E2B0E0E6E2F0E080818D7F8C93D0
:10053000A6E2B0E0E6E2F0E080818E7F8C93AFC06F
:10054000A6E2B0E0E6E2F0E080818B7F8C93A6E249
:10055000B0E0E6E2F0E080818D7F8C93A6E2B0E02F
:10056000E6E2F0E0808181608C9399C0A6E2B0E081
:10057000E6E2F0E080818B7F8C93A6E2B0E0E6E2D9
:10058000F0E0808182608C93A6E2B0E0E6E2F0E0E9
:1005900080818E7F8C9383C0A6E2B0E0E6E2F0E03B
:1005A00080818B7F8C93A6E2B0E0E6E2F0E0808170
:1005B00082608C93A6E2B0E0E6E2F0E080818160A8
:1005C0008C936DC0A6E2B0E0E6E2F0E0808184604A
:1005D0008C93A6E2B0E0E6E2F0E080818D7F8C9320
:1005E000A6E2B0E0E6E2F0E080818E7F8C9357C017
:1005F000A6E2B0E0E6E2F0E0808184608C93A6E2BF
:10060000B0E0E6E2F0E080818D7F8C93A6E2B0E07E
:10061000E6E2F0E0808181608C9341C0A6E2B0E028
:10062000E6E2F0E0808184608C93A6E2B0E0E6E24E
:10063000F0E0808182608C93A6E2B0E0E6E2F0E038
:1006400080818E7F8C932BC0A6E2B0E0E6E2F0E0E2
:10065000808184608C93A6E2B0E0E6E2F0E08081E5
:1006600082608C93A6E2B0E0E6E2F0E080818160F7
:100670008C9315C0A6E2B0E0E6E2F0E080818460F1
:100680008C93A6E2B0E0E6E2F0E080818D7F8C936F
:10069000A6E2B0E0E6E2F0E080818E7F8C9380916C
:1006A000B000282F30E03A83298389819A818230F3
:1006B0009105A1F129813A81233031052CF48981FA
:1006C0009A81009771F06BC029813A8123303105FE
:1006D00009F441C089819A818430910509F458C098
:1006E0005EC0A6E2B0E0E6E2F0E0808180628C933A
:1006F000A0E5B0E0E0E5F0E080818F778C93A0E5A5
:10070000B0E0E0E5F0E080818F7B8C93A0E5B0E085
:10071000E0E5F0E080818F7D8C9341C0A6E2B0E0FF
:10072000E6E2F0E0808180628C93A0E5B0E0E0E555
:10073000F0E080818F778C93A0E5B0E0E0E5F0E019
:10074000808180648C93A0E5B0E0E0E5F0E08081FA
:100750008F7D8C9324C0A6E2B0E0E6E2F0E08081D9
:1007600080628C93A0E5B0E0E0E5F0E080818F77D7
:100770008C93A0E5B0E0E0E5F0E0808180648C93AC
:10078000A0E5B0E0E0E5F0E0808180628C9307C0F6
:10079000A6E2B0E0E6E2F0E080818F7D8C932C96BB
:1007A0000FB6F894DEBF0FBECDBFCF91DF91089595
:1007B000DF93CF930F92CDB7DEB78983A7E2B0E086
:1007C000E7E2F0E08081982F907E8981892B8C93DD
:1007D0000F90CF91DF910895DF93CF93CDB7DEB720
:1007E000A6E2B0E0E6E2F0E0808180648C93809144
:1007F000B100882F90E0009791F4E6E2F0E080816C
:1008000082958F70882F90E0817090700097A9F387
:10081000A6E2B0E0E6E2F0E0808180618C93CF91C7
:10082000DF910895DF93CF9300D0CDB7DEB78091ED
:10083000AD00813081F4E4E2F0E080819181002418
:10084000880F991F001C880F991F001C892F902D5D
:100850009A83898306C0E4E2F0E0808191819A83E3
:10086000898389819A810F900F90CF91DF910895AC
:10087000DF93CF93CDB7DEB7A6E2B0E0E6E2F0E0DB
:1008800080818F778C93A6E2B0E0E6E2F0E0808191
:10089000877F8C93CF91DF910895DF93CF9300D022
:1008A000CDB7DEB789836A838A81813009F06DC054
:1008B00089818830A0F4ABE3B0E0EBE3F0E0808125
:1008C000482F8981282F30E081E090E0022E02C07D
:1008D000880F991F0A94E2F7842B8C93C8C08981F2
:1008E0008830C8F089818031B0F4A8E3B0E0E8E353
:1008F000F0E08081482F8981882F90E008979C0143
:1009000081E090E0022E02C0880F991F0A94E2F75E
:10091000842B8C93ACC089818031C8F08981883167
:10092000B0F4A5E3B0E0E5E3F0E08081482F8981F1
:10093000882F90E040979C0181E090E0022E02C059
:10094000880F991F0A94E2F7842B8C9390C08981B9
:10095000883108F48CC08981803208F088C0A2E315
:10096000B0E0E2E3F0E08081482F8981882F90E0B9
:1009700048979C0181E090E0022E02C0880F991FE9
:100980000A94E2F7842B8C9372C08A81882309F041
:100990006EC089818830A8F4ABE3B0E0EBE3F0E00F
:1009A0008081482F8981282F30E081E090E0022E5D
:1009B00002C0880F991F0A94E2F7809584238C93D4
:1009C00056C089818830D0F089818031B8F4A8E39D
:1009D000B0E0E8E3F0E08081482F8981882F90E043
:1009E00008979C0181E090E0022E02C0880F991FB9
:1009F0000A94E2F7809584238C9339C089818031F1
:100A0000D0F089818831B8F4A5E3B0E0E5E3F0E007
:100A10008081482F8981882F90E040979C0181E058
:100A200090E0022E02C0880F991F0A94E2F7809589
:100A300084238C931CC089818831C8F089818032DD
:100A4000B0F4A2E3B0E0E2E3F0E08081482F8981D6
:100A5000882F90E048979C0181E090E0022E02C030
:100A6000880F991F0A94E2F7809584238C930F9046
:100A70000F90CF91DF910895DF93CF9300D0CDB742
:100A8000DEB789838981883098F4E9E3F0E08081DA
:100A9000282F30E08981882F90E0A90102C0559568
:100AA00047958A95E2F7CA01582F51705A8350C072
:100AB00089818830B8F089818031A0F4E6E3F0E0E4
:100AC0008081282F30E08981882F90E00897A90144
:100AD00002C0559547958A95E2F7CA01582F517083
:100AE0005A8336C089818031B8F089818831A0F479
:100AF000E3E3F0E08081282F30E08981882F90E0C7
:100B00004097A90102C0559547958A95E2F7CA0119
:100B1000582F51705A831CC089818831B8F089815F
:100B20008032A0F4E0E3F0E08081282F30E089817A
:100B3000882F90E04897A90102C0559547958A955E
:100B4000E2F7CA01582F51705A8302C088E08A83A5
:100B50008A810F900F90CF91DF910895DF93CF930B
:100B600000D0CDB7DEB789836A838A81882309F0F4
:100B700071C089818830A8F4AAE3B0E0EAE3F0E02C
:100B80008081482F8981282F30E081E090E0022E7B
:100B900002C0880F991F0A94E2F7809584238C93F2
:100BA000C7C089818830D0F089818031B8F4A7E34B
:100BB000B0E0E7E3F0E08081482F8981882F90E062
:100BC00008979C0181E090E0022E02C0880F991FD7
:100BD0000A94E2F7809584238C93AAC0898180319E
:100BE000D0F089818831B8F4A4E3B0E0E4E3F0E028
:100BF0008081482F8981882F90E040979C0181E077
:100C000090E0022E02C0880F991F0A94E2F78095A7
:100C100084238C938DC08981883108F489C08981AF
:100C2000803208F085C0A1E3B0E0E1E3F0E080812C
:100C3000482F8981882F90E048979C0181E090E0BF
:100C4000022E02C0880F991F0A94E2F78095842330
:100C50008C936EC08A81813009F06AC089818830A6
:100C6000A0F4AAE3B0E0EAE3F0E08081482F8981B4
:100C7000282F30E081E090E0022E02C0880F991FFB
:100C80000A94E2F7842B8C9353C089818830C8F092
:100C900089818031B0F4A7E3B0E0E7E3F0E0808140
:100CA000482F8981882F90E008979C0181E090E08F
:100CB000022E02C0880F991F0A94E2F7842B8C93AE
:100CC00037C089818031C8F089818831B0F4A4E3CC
:100CD000B0E0E4E3F0E08081482F8981882F90E044
:100CE00040979C0181E090E0022E02C0880F991F7E
:100CF0000A94E2F7842B8C931BC089818831C0F061
:100D000089818032A8F4A1E3B0E0E1E3F0E08081E2
:100D1000482F8981882F90E048979C0181E090E0DE
:100D2000022E02C0880F991F0A94E2F7842B8C933D
:100D30000F900F90CF91DF910895DF93CF93CDB7B0
:100D4000DEB78AE060E00E94AE0584E160E00E94C8
:100D5000AE05CF91DF910895DF93CF930F92CDB77A
:100D6000DEB78AE089838AE00E943C05813019F46D
:100D700082E0898307C084E10E943C05813011F440
:100D800081E0898389810F90CF91DF910895DF936E
:100D9000CF9300D000D00F92CDB7DEB719828091EB
:100DA000BA00813009F5ABE2B0E0EBE2F0E080811F
:100DB00082608C93E9E2F0E08091B2009091B30000
:100DC0008083A0E4B0E0E0E4F0E080818F778C9352
:100DD000E0E4F0E08091B2009091B300892F992770
:100DE000808381E0898316C08091BA00882389F4CA
:100DF000ABE2B0E0EBE2F0E080818D7F8C93E9E242
:100E0000F0E08091B2009091B300808381E089830B
:100E100001C019828091B400282F30E03D832C83DB
:100E20008C819D8181309105D9F02C813D812230CA
:100E3000310569F08C819D810097D1F4A0E4B0E088
:100E4000E0E4F0E080818F7480688C9312C0A0E4AD
:100E5000B0E0E0E4F0E080818F74806A8C9309C098
:100E6000A0E4B0E0E0E4F0E08081806B8C9301C00E
:100E700019828091B500882349F4A0E4B0E0E0E451
:100E8000F0E08081877780688C930DC08091B500F9
:100E9000813041F4A0E4B0E0E0E4F0E080818868D3
:100EA0008C9301C019828091B600282F30E03B83DB
:100EB0002A838A819B8182309105D9F12A813B81E5
:100EC0002330310554F48A819B81009791F02A8167
:100ED0003B8121303105E9F05AC08A819B81833002
:100EE0009105B9F12A813B812430310509F440C0D4
:100EF0004EC0A0E4B0E0E0E4F0E080818977806853
:100F00008C93AAE2B0E0EAE2F0E080818B7F8C93E0
:100F10003FC0A0E4B0E0E0E4F0E08081897782683F
:100F20008C93AAE2B0E0EAE2F0E080818B7F8C93C0
:100F30002FC0A0E4B0E0E0E4F0E08081897784682D
:100F40008C93AAE2B0E0EAE2F0E080818B7F8C93A0
:100F50001FC0A0E4B0E0E0E4F0E0808186688C93FC
:100F6000AAE2B0E0EAE2F0E080818B7F8C9310C0CF
:100F7000A0E4B0E0E0E4F0E0808186688C93AAE22F
:100F8000B0E0EAE2F0E0808184608C9301C01982D5
:100F90008091B700882341F0AAE2B0E0EAE2F0E0F5
:100FA00080818F7D8C930DC08091B700882341F4A0
:100FB000AAE2B0E0EAE2F0E0808180628C9301C0B6
:100FC00019828091B800882341F0AAE2B0E0EAE2F9
:100FD000F0E080818F7B8C930DC08091B8008823D6
:100FE00041F4AAE2B0E0EAE2F0E0808180648C9310
:100FF00001C019828091B900882341F0AAE2B0E0D3
:10100000EAE2F0E080818F778C930DC08091B90087
:10101000882341F4AAE2B0E0EAE2F0E0808180684F
:101020008C9301C01982AAE2B0E0EAE2F0E080818C
:1010300080618C9389810F900F900F900F900F908B
:10104000CF91DF910895DF93CF9300D000D00F921E
:10105000CDB7DEB79D838C83EAE2F0E08081882300
:101060002CF0EBE2F0E080818823DCF7EBE2F0E0AB
:101070008081882F90E08C719070009749F0ECE2AD
:10108000F0E08081882F90E09B838A83198208C0DA
:10109000ECE2F0E08081EC81FD81808381E0898356
:1010A00089810F900F900F900F900F90CF91DF914B
:1010B0000895DF93CF9300D0CDB7DEB78A83EAE2FD
:1010C000F0E08081829586958770882F90E081700E
:1010D0009070009761F4EBE2F0E080818295869554
:1010E0008770882F90E0817090700097A1F3EAE2FA
:1010F000F0E08081869586958695882F90E08170B6
:101100009070882339F0ECE2F0E08A81808381E0FE
:10111000898301C0198289810F900F90CF91DF914F
:101120000895DF93CF9300D000D00F92CDB7DEB7F4
:101130009C838B83198213C08981282F30E08B8197
:101140009C81820F931F0E9423088A838A818823AF
:1011500019F48A818D8313C089818F5F8983898186
:10116000882F90E09C01215030408B819C81FC01B4
:10117000E20FF31F80818823F9F68A818D838D81A8
:101180000F900F900F900F900F90CF91DF910895D7
:10119000DF93CF9300D000D00F92CDB7DEB79C8302
:1011A0008B83198215C08981282F30E08B819C8127
:1011B000FC01E20FF31F80810E9459088A838A8113
:1011C000882319F48A818D8310C089818F5F898378
:1011D0008981282F30E08B819C81FC01E20FF31F75
:1011E0008081882301F78A818D838D810F900F90F4
:1011F0000F900F900F90CF91DF910895DF93CF93D1
:101200000F92CDB7DEB7AAE2B0E0EAE2F0E080816B
:1012100088608C93AAE2B0E0EAE2F0E0808180612D
:101220008C93EAE2F0E08081869586958695882FFA
:1012300090E081709070882381F0EAE2F0E0808194
:1012400082958F70882F90E081709070882319F0BC
:1012500081E0898303C0198201C0198289810F90BE
:10126000CF91DF910895DF93CF930F92CDB7DEB783
:10127000EBE2F0E08081829586958770882F90E080
:10128000817090700097A1F3AAE2B0E0EAE2F0E08A
:101290008081877F8C93AAE2B0E0EAE2F0E080816F
:1012A0008F7E8C93AAE2B0E0EAE2F0E080818F7D4D
:1012B0008C93AAE2B0E0EAE2F0E080818F7B8C932D
:1012C000AAE2B0E0EAE2F0E080818F778C93EAE274
:1012D000F0E08081869586958695882F90E08170D4
:1012E0009070009781F4EAE2F0E0808182958F703F
:1012F000882F90E081709070009719F481E08983C5
:1013000003C0198201C0198289810F90CF91DF91AA
:101310000895DF93CF930F92CDB7DEB719828091F6
:10132000B700882341F0AAE2B0E0EAE2F0E0808171
:101330008F7D8C930DC08091B700882341F4AAE281
:10134000B0E0EAE2F0E0808180628C9301C0198213
:1013500089810F90CF91DF910895DF93CF930F9202
:10136000CDB7DEB719828091B900882341F0AAE297
:10137000B0E0EAE2F0E080818F778C930DC080913D
:10138000B900882341F4AAE2B0E0EAE2F0E080810B
:1013900080688C9301C0198289810F90CF91DF9171
:1013A0000895DF93CF930F92CDB7DEB71982809166
:1013B000B800882341F0AAE2B0E0EAE2F0E08081E0
:1013C0008F7B8C930DC08091B800882341F4AAE2F2
:1013D000B0E0EAE2F0E0808180648C9301C0198281
:1013E00089810F90CF91DF910895EF92FF920F9333
:1013F000DF93CF9300D0CDB7DEB79A8389830E9465
:101400009D060E94C70681E060E00E94AE050E9432
:1014100049000E94EC030E940A1083E061E040E072
:101420000E9469169093C3008093C20083E064E039
:1014300040E00E9469169093C7008093C60083E045
:1014400061E040E00E9469169093C5008093C4005B
:101450008EE69AE020E630E0B90144E650E020E074
:1014600030E001E0EE24FF240E94992485E29CE014
:1014700020E730E0B90146E950E020E030E003E049
:10148000EE24FF240E9499248FEC9AE02AE730E0B2
:10149000B90144E650E020E030E002E0EE24FF2411
:1014A0000E94992489E29BE023E830E0B90146E9F3
:1014B00050E020E030E004E0EE24FF240E94992474
:1014C0008091C0009091C1000E94D9260F900F908A
:1014D000CF91DF910F91FF90EF900895DF93CF931D
:1014E00000D000D00F92CDB7DEB79D838C8382E30E
:1014F00090E00E94B72681E08B831A8219828A814C
:10150000882379F40E94AC06823059F40E94AC061C
:1015100089838A818F5F8A838AE090E00E94B72660
:10152000EECF8A818130E9F413C081E08B83809112
:10153000C2009091C3009E012D5F3F4FB90144E668
:1015400050E020E00E94F51684E190E00E94B7266A
:101550000E94AC06982F8981981739F382E08A831C
:10156000CECF8A81823039F41B821A8284E190E0E6
:101570000E94B726C4CF83E08B838091C2009091F4
:10158000C3009E012D5F3F4FB90144E650E020E0CB
:101590000E94F51684E190E00E94B726B0CFDF9359
:1015A000CF93CDB7DEB72A970FB6F894DEBF0FBE44
:1015B000CDBF9A87898786E990E00E94B726198275
:1015C0001A821B821C820E941204CC01A0E0B0E0AF
:1015D0002EEE32E040E050E0BC01CD010E94B2317D
:1015E000DC01CB012CEF3BE040E050E0BC01CD0141
:1015F0000E94DD31DA01C9018D839E83AF83B887F4
:101600002D813E814F81588589819A81AB81BC8132
:10161000281739074A075B07A9F08D819E81AF81A2
:10162000B88589839A83AB83BC838091C6009091EF
:10163000C7009E012B5F3F4FB9014AE050E020E018
:101640000E94F5160E94EC0388EC90E00E94B726F9
:10165000BACFEF92FF920F931F93DF93CF93CDB743
:10166000DEB7A6970FB6F894DEBF0FBECDBF9C8F36
:101670008B8F84E690E00E94B7261C821D821E821A
:101680001F82188619861B821A8281E08983CE0107
:101690000A969E8F8D8FECE8F0E0F8A3EF8FF6E0CE
:1016A000F9A3EF8DF8A100808F8D98A1019698A3E2
:1016B0008F8FED8DFE8D00828D8D9E8D01969E8F7C
:1016C0008D8F99A1915099A3E9A1EE2351F7CE01F5
:1016D00040969BA38AA3E2E9F0E0FDA3ECA3FBE024
:1016E000FEA3ECA1FDA100808CA19DA101969DA36C
:1016F0008CA3EAA1FBA100828AA19BA101969BA3D6
:101700008AA39EA191509EA3EEA1EE2351F7809152
:10171000C2009091C3009E012C5F3F4FB9014AE087
:1017200050E00E944A188091C6009091C7009E0127
:101730002B5F3F4FB9014AE050E00E944A18809168
:10174000C4009091C5009E01275F3F4FB9014AE058
:1017500050E00E944A188D819E81AF81B8858A83AE
:1017600081E089838C81813019F40E94891168C0DD
:101770009E01265F3F4F80E060E0A9010E9470114A
:1017800017C08B818F5F8B838981882F90E09C01AC
:10179000220F331FC901880F991F880F991F820FCD
:1017A000931F89838A819AE0692F0E94D1318A83AD
:1017B0008A81882331F736C0ED80FE800F8118853D
:1017C00089819AE0692F0E94D131282F30E040E0D2
:1017D00050E0C801B7010E94DD31DA01C901805D26
:1017E0000E949810ED80FE800F81188589819AE013
:1017F000692F0E94D131282F30E040E050E0C8012D
:10180000B7010E94DD31DC01CB018D839E83AF8364
:10181000B88789819AE0692F0E94D13189838B81B1
:1018200081508B838B81882339F69E01205F3F4F47
:1018300081E060E0A9010E94701189850E949810E2
:1018400082E390E00E94B72662CFDF93CF9300D06F
:101850000F92CDB7DEB79B838A8384E690E00E9427
:10186000B72688E08983ECE2F0E08081898380916B
:10187000C4009091C5009E012F5F3F4FB90144E61F
:1018800050E020E00E94F51688EC90E00E94B72618
:10189000EACFDF93CF9300D0CDB7DEB78BE090E0F7
:1018A0000E948E0F9A83898389819A81009749F0DB
:1018B000E981FA811182108289819A8102960E94BF
:1018C000BC1189819A810F900F90CF91DF9108957B
:1018D000DF93CF93CDB7DEB760970FB6F894DEBF36
:1018E0000FBECDBF9A8789877C876B875E874D87C0
:1018F000388B2F8789859A859C838B8319820E94D8
:101900008428EB81FC818081918198878F838985F0
:101910009A852B853C85B9010E943F0E2F81388521
:101920008B859C85282B392B8D859E8528233923F3
:101930008D859E8528173907C9F42F8138858B85B9
:101940009C85822B932B9E838D83EB81FC81208150
:1019500031818D859E858095909582239323EB819F
:10196000FC8191838083188A1F861EC08F85988989
:10197000009791F08B819C81BC016E5F7F4F8D85BC
:101980009E859C0135604F855889CB01B9010E9425
:10199000F42A1E821D8208C0EB81FC818081918126
:1019A0009E838D8381E089830E9490288A838F851E
:1019B0009889009709F43AC08A81882311F40E941B
:1019C000CE140E94672D9E838D838D819E818070B1
:1019D0009270009731F50FB6F8940F92EB81FC816D
:1019E000808191819E838D832D813E818D859E8511
:1019F000282339238D859E852817390771F4EB81BB
:101A0000FC81208131818D859E85809590958223F2
:101A10009323EB81FC81918380830F900FBE81E043
:101A200089838D819E8190709E838D838D819E811F
:101A300060960FB6F894DEBF0FBECDBFCF91DF9199
:101A400008950F931F93DF93CF93CDB7DEB76397BE
:101A50000FB6F894DEBF0FBECDBF9D878C877F8702
:101A60006E87488B298B1B8B0A8B8C859D859B876A
:101A70008A871F821E821B820E948428EA85FB853A
:101A8000808191819A83898389819A812E853F857E
:101A9000B90149890E945C0F8D838D818823C1F033
:101AA00089819A81998788871B8A1A8A88898823DD
:101AB000E9F1EA85FB85208131818E859F858095BE
:101AC000909582239323EA85FB85918380832EC0A2
:101AD0008A899B89009739F489819A8199878887B7
:101AE00081E08B8323C08889882329F08E819F81A0
:101AF00091609F838E838989882329F08E819F81BD
:101B000094609F838E838A859B85BC016E5F7F4F27
:101B10002E853F858E819F81282B392B4A895B89B1
:101B2000CB01B9010E94F42A198618860E949028D8
:101B30008C838A899B89009709F43CC08C81882317
:101B400011F40E94CE140E94672D9987888788859A
:101B5000998580709270009741F50FB6F8940F92B6
:101B6000EA85FB8580819181998788878885998519
:101B70002E853F85B90149890E945C0F882389F031
:101B80008889882371F0EA85FB85208131818E85E3
:101B90009F858095909582239323EA85FB85918389
:101BA000808381E08B830F900FBE8885998590702C
:101BB000998788878885998563960FB6F894DEBFE4
:101BC0000FBECDBFCF91DF911F910F910895DF938D
:101BD000CF93CDB7DEB728970FB6F894DEBF0FBE10
:101BE000CDBF9E838D8378876F838D819E819C83FB
:101BF0008B830FB6F8940F92EB81FC8180819181E9
:101C00009A838983EB81FC81208131818F81988542
:101C10008095909582239323EB81FC81918380832F
:101C20000F900FBE89819A8128960FB6F894DEBF77
:101C30000FBECDBFCF91DF910895DF93CF93CDB786
:101C4000DEB727970FB6F894DEBF0FBECDBF9F83D8
:101C50008E838E819F819C838B831D82EB81FC818F
:101C6000808191819A83898389819A8127960FB691
:101C7000F894DEBF0FBECDBFCF91DF910895DF9303
:101C8000CF93CDB7DEB765970FB6F894DEBF0FBE22
:101C9000CDBF9B8B8A8B7D8B6C8B198618868A892E
:101CA0009B899B838A8319828A819B8102969B8769
:101CB0008A878A859B8503969D878C870E948428C6
:101CC000EA85FB8585819681998B888BEA81FB81EA
:101CD000208131818C899D89822B932BEA81FB8124
:101CE0009183808359C0E889F989828193819F8794
:101CF0008E87E889F989808191819F838E831982FB
:101D00008E819F8180709D838C838E819F81907056
:101D10009F838E838C819D8180709470009769F47D
:101D2000EA81FB81208131818E819F8182239323EF
:101D3000009791F081E089830FC0EA81FB812081C7
:101D400031818E819F81282339238E819F8128179D
:101D5000390711F481E0898389818823C9F08C8156
:101D60009D8180709170009741F0888599852E81C2
:101D70003F81822B932B99878887EA81FB81808121
:101D800091819C01326088899989B9010E948F2BC9
:101D90008E859F85998B888B288939898C859D852F
:101DA0002817390709F09FCFEA81FB812081318113
:101DB000888599858095909582239323EA81FB817C
:101DC000918380830E949028EA81FB8180819181A8
:101DD00065960FB6F894DEBF0FBECDBFCF91DF91F1
:101DE0000895DF93CF9300D000D000D0CDB7DEB7F9
:101DF0009E838D838D819E819C838B838B819C812F
:101E000002969A8389830E94842808C0E981FA8116
:101E10008581968160E072E00E948F2BE981FA81D2
:101E20008081882399F78B819C810E94E40F0E9416
:101E3000902826960FB6F894DEBF0FBECDBFCF9187
:101E4000DF910895DF93CF9300D000D000D0CDB7BD
:101E5000DEB79A8389834B835C836D837E8389811C
:101E60009A812B813C81B9010E943F0E26960FB6C4
:101E7000F894DEBF0FBECDBFCF91DF910895DF9301
:101E8000CF9300D000D000D0CDB7DEB79A8389833E
:101E90004B835C836D837E8389819A812B813C8116
:101EA000B9010E94E70D26960FB6F894DEBF0FBE6B
:101EB000CDBFCF91DF910895DF93CF9300D000D0B5
:101EC00000D0CDB7DEB79B838A837D836C834E833E
:101ED00019828E81882359F48A819B812C813D81CE
:101EE00082239323009781F081E089830DC02A81AA
:101EF0003B818C819D81282339238C819D812817EA
:101F0000390711F481E08983898126960FB6F89408
:101F1000DEBF0FBECDBFCF91DF910895DF93CF938A
:101F200000D000D0CDB7DEB79C838B831A82198294
:101F30000E9484288091CA009091CB00009731F4D0
:101F40008DEC90E09093CB008093CA008091C80004
:101F50009091C9002B813C81820F931F25E08B3D1E
:101F6000920738F52091C8003091C9008B819C817F
:101F7000280F391F8091C8009091C90082179307DC
:101F8000C0F42091CA003091CB008091C80090919C
:101F9000C900820F931F9A8389832091C8003091D2
:101FA000C9008B819C81820F931F9093C9008093FD
:101FB000C8000E94902889819A810F900F900F90FD
:101FC0000F90CF91DF910895DF93CF9300D0CDB7DD
:101FD000DEB79A8389830F900F90CF91DF91089598
:101FE000DF93CF93CDB7DEB71092C9001092C8002F
:101FF000CF91DF910895DF93CF93CDB7DEB72091D6
:10200000C8003091C9008BED95E0821B930BCF91F6
:10201000DF910895DF93CF93CDB7DEB7AAE3B0E0A9
:10202000EAE3F0E080818E608C93AAE3B0E0EAE31B
:10203000F0E08081806F8C9382E00E942B1088E218
:102040000E942B108CE00E942B1081E00E942B102C
:10205000CF91DF910895DF93CF930F92CDB7DEB785
:102060008983ABE3B0E0EBE3F0E080818D7F8C937C
:10207000ABE3B0E0EBE3F0E080818B7F8C9381E019
:1020800090E00E94B726ABE3B0E0EBE3F0E08081A4
:1020900088608C9381E090E00E94B726ABE3B0E0CB
:1020A000EBE3F0E08081982F9F708981807F892BFE
:1020B0008C9381E090E00E94B726ABE3B0E0EBE3C5
:1020C000F0E08081877F8C9381E090E00E94B726CA
:1020D000ABE3B0E0EBE3F0E0808188608C9381E0DB
:1020E00090E00E94B726ABE3B0E0EBE3F0E0808144
:1020F000282F2F708981882F90E082959295907F6C
:102100009827807F9827822B8C9381E090E00E9413
:10211000B726ABE3B0E0EBE3F0E08081877F8C9300
:1021200081E090E00E94B7260F90CF91DF91089553
:10213000DF93CF930F92CDB7DEB78983ABE3B0E0E7
:10214000EBE3F0E0808182608C93ABE3B0E0EBE303
:10215000F0E080818B7F8C9381E090E00E94B72635
:10216000ABE3B0E0EBE3F0E0808188608C9381E04A
:1021700090E00E94B726ABE3B0E0EBE3F0E08081B3
:10218000982F9F708981807F892B8C9381E090E0CC
:102190000E94B726ABE3B0E0EBE3F0E08081877FFD
:1021A0008C9381E090E00E94B726ABE3B0E0EBE3D4
:1021B000F0E0808188608C9381E090E00E94B726F7
:1021C000ABE3B0E0EBE3F0E08081282F2F70898152
:1021D000882F90E082959295907F9827807F98270E
:1021E000822B8C9381E090E00E94B726ABE3B0E0B5
:1021F000EBE3F0E08081877F8C9381E090E00E94A8
:10220000B7260F90CF91DF910895DF93CF9300D041
:102210000F92CDB7DEB79B838A8319820EC0898166
:10222000282F30E08A819B81FC01E20FF31F80811F
:102230000E94981089818F5F89838981282F30E0DF
:102240008A819B81FC01E20FF31F8081882339F78B
:102250000F900F900F90CF91DF910895DF93CF9360
:1022600000D000D00F92CDB7DEB78A836B838A810E
:10227000282F30E03D832C838C819D818130910516
:10228000C1F02C813D81223031052CF48C819D815F
:10229000009761F019C02C813D812230310569F031
:1022A0008C819D818330910561F00EC08B81898383
:1022B0000BC08B81805C898307C08B81805F8983A1
:1022C00003C08B81805B8983898180680E942B1089
:1022D0000F900F900F900F900F90CF91DF91089576
:1022E000DF93CF9300D000D0CDB7DEB789836A8368
:1022F0005C834B8389816A810E942E118B819C8132
:102300000E9405110F900F900F900F90CF91DF91C9
:102310000895DF93CF93CDB7DEB781E00E942B10F5
:10232000CF91DF910895DF93CF93CDB7DEB7649758
:102330000FB6F894DEBF0FBECDBF698B7A8B8B8B47
:102340009C8B89899A89AB89BC89BC01CD019E018E
:102350002F5F3F4FA9012AE030E00E940F32CE01EB
:1023600001960E94051164960FB6F894DEBF0FBE69
:10237000CDBFCF91DF910895DF93CF9300D0CDB73C
:10238000DEB79A83898389819A810396E981FA81EC
:1023900092838183E981FA818FEF9FEF9483838316
:1023A00089819A810396E981FA819683858389815F
:1023B0009A810396E981FA8190878783E981FA817E
:1023C00010820F900F90CF91DF910895DF93CF93FC
:1023D00000D0CDB7DEB79A838983E981FA8111866F
:1023E00010860F900F90CF91DF910895DF93CF93D8
:1023F00000D000D000D0CDB7DEB79C838B837E8326
:102400006D83EB81FC81818192819A838983ED8147
:10241000FE8189819A8193838283E981FA81848113
:102420009581ED81FE8195838483E981FA81048021
:10243000F581E02D8D819E8193838283E981FA81EC
:102440008D819E8195838483ED81FE818B819C812A
:1024500091878087EB81FC8180818F5FEB81FC819C
:10246000808326960FB6F894DEBF0FBECDBFCF9106
:10247000DF910895DF93CF93CDB7DEB728970FB6DE
:10248000F894DEBF0FBECDBF9E838D8378876F83A8
:10249000EF81F885808191819A83898389819A81EE
:1024A0002FEF8F3F920739F4ED81FE818781908570
:1024B0009C838B8318C08D819E8103969C838B8324
:1024C00006C0EB81FC81828193819C838B83EB81AD
:1024D000FC810280F381E02D2081318189819A8104
:1024E0008217930770F7EB81FC8182819381EF81E2
:1024F000F88593838283EF81F8850280F381E02D54
:102500008F81988595838483EF81F8858B819C8169
:1025100095838483EB81FC818F819885938382836B
:10252000EF81F8858D819E8191878087ED81FE8185
:1025300080818F5FED81FE81808328960FB6F894AD
:10254000DEBF0FBECDBFCF91DF910895DF93CF9354
:1025500000D000D0CDB7DEB79C838B83EB81FC81AC
:10256000808591859A838983EB81FC81A281B381E7
:10257000EB81FC818481958115969C938E931497B1
:10258000EB81FC81A481B581EB81FC818281938107
:1025900013969C938E931297E981FA81218132815F
:1025A0008B819C812817390741F4EB81FC81848160
:1025B0009581E981FA8192838183EB81FC81118687
:1025C0001086E981FA8180818150E981FA818083D6
:1025D000E981FA8180810F900F900F900F90CF9139
:1025E000DF910895EF92FF920F93DF93CF93CDB7D2
:1025F000DEB78CE061E00E94AE0585EF99E02DE941
:1026000030E0E0ECF0E0B90146E950E020E030E0F5
:1026100005E07F010E9499240E944628FFCFDF93A6
:10262000CF93CDB7DEB728970FB6F894DEBF0FBEB5
:10263000CDBF9C838B837E836D8358874F83EB81D3
:10264000FC8181E180838B819C8101979C838B83BA
:10265000EB81FC8182E280838B819C8101979C834A
:102660008B83EB81FC8183E380838B819C81019749
:102670009C838B838D819E819A8389838981EB8161
:10268000FC8180838B819C8101979C838B838981D2
:102690009A81892F99279A8389838981EB81FC818B
:1026A00080838B819C8101979C838B83EB81FC8150
:1026B00010828B819C8101979C838B83EB81FC81B1
:1026C00080E880838B819C8101979C838B83EB8145
:1026D000FC8110828B819C8101979C838B83EB8191
:1026E000FC8182E080838B819C8101979C838B831A
:1026F000EB81FC8183E080838B819C8101979C83AB
:102700008B83EB81FC8184E080838B819C810197AA
:102710009C838B83EB81FC8185E080838B819C8112
:1027200001979C838B83EB81FC8186E080838B8186
:102730009C8101979C838B83EB81FC8187E0808364
:102740008B819C8101979C838B83EB81FC8188E04A
:1027500080838B819C8101979C838B83EB81FC819F
:1027600089E080838B819C8101979C838B83EB81A3
:10277000FC8180E180838B819C8101979C838B838A
:10278000EB81FC8181E180838B819C8101979C831B
:102790008B83EB81FC8182E180838B819C8101971B
:1027A0009C838B83EB81FC8183E180838B819C8183
:1027B00001979C838B83EB81FC8184E180838B81F7
:1027C0009C8101979C838B83EB81FC8185E18083D5
:1027D0008B819C8101979C838B83EB81FC8186E1BB
:1027E00080838B819C8101979C838B83EB81FC810F
:1027F00087E180838B819C8101979C838B83EB8114
:10280000FC8188E180838B819C8101979C838B83F1
:10281000EB81FC8189E180838B819C8101979C8382
:102820008B83EB81FC8180E280838B819C8101978B
:102830009C838B83EB81FC8181E280838B819C81F3
:1028400001979C838B83EB81FC8182E280838B8167
:102850009C8101979C838B83EB81FC8183E2808345
:102860008B819C8101979C838B838F8198859A8330
:1028700089838981EB81FC8180838B819C81019795
:102880009C838B8389819A81892F99279A83898355
:102890008981EB81FC8180838B819C8101979C8362
:1028A0008B83EB81FC8186E280838B819C81019705
:1028B0009C838B83EB81FC8187E280838B819C816D
:1028C00001979C838B83EB81FC8188E280838B81E1
:1028D0009C8101979C838B83EB81FC8189E28083BF
:1028E0008B819C8101979C838B83EB81FC8180E3AE
:1028F00080838B819C8101979C838B83EB81FC81FE
:1029000081E380838B819C8101979C838B838B8166
:102910009C8128960FB6F894DEBF0FBECDBFCF9135
:10292000DF910895DF93CF93CDB7DEB70E94841572
:10293000A091A806B091A906CD91CDBFDD91DEBFD3
:10294000FF91EF91DF91CF91BF91AF919F918F91C7
:102950007F916F915F914F913F912F911F910F91B7
:10296000FF90EF90DF90CF90BF90AF909F908F90AF
:102970007F906F905F904F903F902F901F900F909F
:102980000FBE0F90089581E0CF91DF910895DF93FE
:10299000CF93CDB7DEB7CF91DF9108950F920FB6E9
:1029A000F8940F921F9211242F923F924F925F92B0
:1029B0006F927F928F929F92AF92BF92CF92DF924F
:1029C000EF92FF920F931F932F933F934F935F9339
:1029D0006F937F938F939F93AF93BF93CF93DF9327
:1029E000EF93FF93A091A806B091A9060DB60D92A2
:1029F0000EB60D920E94652AA091A806B091A90674
:102A0000CD91CDBFDD91DEBFFF91EF91DF91CF91F1
:102A1000BF91AF919F918F917F916F915F914F91F6
:102A20003F912F911F910F91FF90EF90DF90CF90EA
:102A3000BF90AF909F908F907F906F905F904F90DE
:102A40003F902F901F900F900FBE0F9008950F9200
:102A50000FB6F8940F921F9211242F923F924F922B
:102A60005F926F927F928F929F92AF92BF92CF921E
:102A7000DF92EF92FF920F931F932F933F934F9309
:102A80005F936F937F938F939F93AF93BF93CF93F6
:102A9000DF93EF93FF93A091A806B091A9060DB61E
:102AA0000D920EB60D920E948029882311F00E948B
:102AB000652AA091A806B091A906CD91CDBFDD9160
:102AC000DEBFFF91EF91DF91CF91BF91AF919F91C9
:102AD0008F917F916F915F914F913F912F911F91B6
:102AE0000F91FF90EF90DF90CF90BF90AF909F90AD
:102AF0008F907F906F905F904F903F902F901F909E
:102B00000F900FBE0F900895DF93CF9300D000D0A9
:102B100000D0CDB7DEB780E49FE1A0E0B0E08B83CA
:102B20009C83AD83BE838B819C81AD81BE81689483
:102B300015F8B695A795979587951694D1F78B8339
:102B40009C83AD83BE838B819C81AD81BE810197C7
:102B5000A109B1098B839C83AD83BE838B8189835B
:102B60008B819C81AD81BE81892F9A2FAB2FBB2792
:102B70008B839C83AD83BE838B818A83EBE4F0E0FF
:102B80008A818083EAE4F0E0898180838BE0898315
:102B9000EEE4F0E089818083E9E5F0E080818983DB
:102BA000898180618983E9E5F0E0898180832696C7
:102BB0000FB6F894DEBF0FBECDBFCF91DF91089561
:102BC0000E9427151895DF93CF9300D000D00F9265
:102BD000CDB7DEB79C838B836D838B819C819A8379
:102BE00089830FB6F8940F92E981FA81408151816F
:102BF000E981FA81838D282F30E0E981FA81848D83
:102C0000882F90E0BC01269FC001279F900D369F22
:102C1000900D1124840F951FE981FA819583848397
:102C2000E981FA81128EE981FA8180819181E981BD
:102C3000FA8193838283E981FA8140815181E9811C
:102C4000FA81838D882F90E09C0121503040E981EA
:102C5000FA81848D882F90E0BC01269FC001279FB8
:102C6000900D369F900D1124840F951FE981FA81F4
:102C700097838683E981FA818FEF858FE981FA81D5
:102C80008FEF868F8D81882379F4E981FA818085A1
:102C90008823A1F089819A8108960E94242B882399
:102CA00069F00E94CE140AC089819A8108960E9418
:102CB000BC1189819A8141960E94BC110F900FBE70
:102CC00081E00F900F900F900F900F90CF91DF91B8
:102CD00008950F931F93DF93CF93CDB7DEB7299756
:102CE0000FB6F894DEBF0FBECDBF8F8368874987CC
:102CF0008885882319F41C821B8210C08F81282F9D
:102D000030E08885882F90E0AC01249FC001259F8A
:102D1000900D349F900D11249C838B838B819C811B
:102D20004F960E948E0F9E838D838D819E8100978A
:102D3000A1F08D819E819A83898389819A814F96A2
:102D40009A83898329813A81ED81FE818F8168850B
:102D5000A90129858F010E94BA168D819E8129962D
:102D60000FB6F894DEBF0FBECDBFCF91DF911F919C
:102D70000F9108950F931F93DF93CF93CDB7DEB7D5
:102D800027970FB6F894DEBF0FBECDBF89836A8345
:102D90005C834B832D831F830E838A81882339F4C0
:102DA0008E819F81EE81FF819183808306C08B811C
:102DB0009C81EE81FF8191838083EE81FF818981F7
:102DC000838FEE81FF818A81848F8E819F8161E074
:102DD0000E94E31527960FB6F894DEBF0FBECDBF55
:102DE000CF91DF911F910F910895DF93CF93CDB7CE
:102DF000DEB72F970FB6F894DEBF0FBECDBF998711
:102E000088877B876A875D874C872E871C828885A9
:102E100099859A8389830FB6F8940F92E981FA8194
:102E2000928DE981FA81838D981718F08E85823012
:102E300011F589819A812A853B85B9014E850E94C9
:102E4000471B8B83E981FA818189882351F089812D
:102E50009A8141960E94242B882341F00E94CE142F
:102E600005C08B81882311F00E94CE140F900FBEF5
:102E700081E08F875CC08C859D85009721F40F9041
:102E80000FBE1F8654C08C81882331F4CE01059675
:102E90000E940A2C81E08C830F900FBE0E94842830
:102EA0000FB6F8940F92E981FA81858D8F3F19F45E
:102EB000E981FA81158EE981FA81868D8F3F19F4B7
:102EC000E981FA81168E0F900FBECE0105969E0104
:102ED000245F3F4FB9010E94232C882309F5898183
:102EE0009A810E94C31C8823A1F089819A81089647
:102EF0002C853D85B9010E94D22A89819A810E9440
:102F0000341C0E949028882309F085CF0E94CE149B
:102F100082CF89819A810E94341C0E9490287BCFA5
:102F200089819A810E94341C0E9490281F868F8577
:102F30002F960FB6F894DEBF0FBECDBFCF91DF91B5
:102F40000895DF93CF93CDB7DEB72C970FB6F894E3
:102F5000DEBF0FBECDBF9F838E83798768875B8777
:102F60004A872C878E819F819B838A831C82EA817A
:102F7000FB81928DEA81FB81838D981718F08C85F7
:102F8000823061F5EA81FB81868D89838A819B810C
:102F900028853985B9014C850E94471B89818F3F5F
:102FA000A9F4EA81FB8181898823A9F08A819B8128
:102FB00041960E94242B882371F08A859B85009777
:102FC00051F0EA85FB8581E0808305C089818F5FB0
:102FD000EA81FB81868F81E08D8301C01D828D8116
:102FE0002C960FB6F894DEBF0FBECDBFCF91DF9108
:102FF0000895DF93CF93CDB7DEB72A970FB6F89435
:10300000DEBF0FBECDBF98878F837A8769878F8198
:1030100098859C838B831D82EB81FC81828D8A83C2
:10302000EB81FC81938D8A81891748F5EB81FC81C6
:10303000868D89838A818F5FEB81FC81828F898174
:103040008F3FA9F4EB81FC8181898823A9F08B81D2
:103050009C8141960E94242B882371F089859A8552
:10306000009751F0E985FA8581E0808305C0898168
:103070008F5FEB81FC81868F81E08E8301C01E8291
:103080008E812A960FB6F894DEBF0FBECDBFCF91CA
:10309000DF910895DF93CF93CDB7DEB72E970FB6AC
:1030A000F894DEBF0FBECDBF998788877B876A877C
:1030B0005D874C871C82888599859B838A830FB6A0
:1030C000F8940F92EA81FB81828D8983898188231C
:1030D000F9F08A819B812A853B85B9010E94ED1B0D
:1030E00089818150EA81FB81828FEA81FB81808521
:1030F000882349F08A819B8108960E94242B88238B
:1031000011F00E94CE140F900FBE81E08E8763C035
:103110008C859D85009721F40F900FBE1E865BC0A5
:103120008C81882331F4CE0105960E940A2C81E01F
:103130008C830F900FBE0E9484280FB6F8940F92D4
:10314000EA81FB81858D8F3F19F4EA81FB81158E21
:10315000EA81FB81868D8F3F19F4EA81FB81168E0F
:103160000F900FBECE0105969E01245F3F4FB9011F
:103170000E94232C882309F58A819B810E94871C49
:103180008823A1F08A819B8141962C853D85B901D8
:103190000E94D22A8A819B810E94341C0E9490281E
:1031A000882309F08CCF0E94CE1489CF8A819B811D
:1031B0000E94341C0E94902882CF8A819B810E94A9
:1031C000341C0E9490288A819B810E94871C88233E
:1031D00009F475CF1E868E852E960FB6F894DEBF45
:1031E0000FBECDBFCF91DF910895DF93CF93CDB7C1
:1031F000DEB72C970FB6F894DEBF0FBECDBF998710
:1032000088877B876A871C82888599859B838A83C8
:103210000FB6F8940F92EA81FB81828D89838981B0
:103220008823C1F089818150EA81FB81828FEA8104
:10323000FB818085882349F08A819B8108960E94C2
:10324000242B882311F00E94CE140F900FBE81E032
:103250008C8763C08A859B85009721F40F900FBEF1
:103260001C865BC08C81882331F4CE0105960E94B8
:103270000A2C81E08C830F900FBE0E9484280FB629
:10328000F8940F92EA81FB81858D8F3F19F4EA81D2
:10329000FB81158EEA81FB81868D8F3F19F4EA81CF
:1032A000FB81168E0F900FBECE0105969E01265F04
:1032B0003F4FB9010E94232C882309F58A819B8105
:1032C0000E94871C8823A1F08A819B8141962A85D0
:1032D0003B85B9010E94D22A8A819B810E94341CBD
:1032E0000E949028882309F093CF0E94CE1490CF9B
:1032F0008A819B810E94341C0E94902889CF8A81F8
:103300009B810E94341C0E9490288A819B810E948C
:10331000871C882309F47CCF1C868C852C960FB6DD
:10332000F894DEBF0FBECDBFCF91DF910895DF933C
:10333000CF93CDB7DEB760970FB6F894DEBF0FBE60
:10334000CDBF9B878A877D876C875F874E871E826C
:103350008A859B859B838A830FB6F8940F92EA81B6
:10336000FB81828D89838981882331F1EA81FB8108
:10337000868197819D838C838A819B812C853D8565
:10338000B9010E94ED1BEA81FB818C819D819783AD
:103390008683EA81FB818189882349F08A819B8128
:1033A00041960E94242B882311F00E94CE140F9086
:1033B0000FBE81E0888B63C08E859F85009721F4C6
:1033C0000F900FBE188A5BC08E81882331F4CE0126
:1033D00007960E940A2C81E08E830F900FBE0E94F8
:1033E00084280FB6F8940F92EA81FB81858D8F3F78
:1033F00019F4EA81FB81158EEA81FB81868D8F3F6E
:1034000019F4EA81FB81168E0F900FBECE0107964C
:103410009E01225F3F4FB9010E94232C882309F5AA
:103420008A819B810E94871C8823A1F08A819B81CD
:1034300041962E853F85B9010E94D22A8A819B81BF
:103440000E94341C0E949028882309F085CF0E9496
:10345000CE1482CF8A819B810E94341C0E949028C6
:103460007BCF8A819B810E94341C0E9490288A8194
:103470009B810E94871C882309F46ECF188A888953
:1034800060960FB6F894DEBF0FBECDBFCF91DF912F
:103490000895DF93CF93CDB7DEB72C970FB6F8948E
:1034A000DEBF0FBECDBF98878F837A8769875C8721
:1034B0004B878F8198859C838B831D82EB81FC8158
:1034C000828D8A838A81882381F1EB81FC81858DBD
:1034D00089838B819C8129853A85B9010E94ED1BE6
:1034E0008A818150EB81FC81828F89818F3FA9F491
:1034F000EB81FC8180858823A9F08B819C810896D3
:103500000E94242B882371F08B859C85009751F0B5
:10351000EB85FC8581E0808305C089818F5FEB812D
:10352000FC81858F81E08E8301C01E828E812C9666
:103530000FB6F894DEBF0FBECDBFCF91DF910895D7
:10354000DF93CF93CDB7DEB72A970FB6F894DEBFDF
:103550000FBECDBF98878F837A8769878F819885C3
:103560009A8389831D82E981FA81828D8823B1F053
:10357000E981FA81868197819C838B8389819A81F5
:1035800029853A85B9010E94ED1BE981FA818B8179
:103590009C819783868381E08E8301C01E828E8109
:1035A0002A960FB6F894DEBF0FBECDBFCF91DF9144
:1035B0000895DF93CF9300D00F92CDB7DEB79B83F2
:1035C0008A830FB6F8940F92EA81FB81828D8983FA
:1035D0000F900FBE89810F900F900F90CF91DF91C8
:1035E0000895DF93CF9300D000D00F92CDB7DEB710
:1035F0009D838C838C819D819A8389830FB6F894F7
:103600000F92E981FA81938DE981FA81828D292FC8
:10361000281B822F8B830F900FBE8B810F900F90F2
:103620000F900F900F90CF91DF910895DF93CF937C
:1036300000D000D00F92CDB7DEB79D838C838C81F4
:103640009D819A838983E981FA81828D8B838B8125
:103650000F900F900F900F900F90CF91DF910895E2
:10366000DF93CF9300D000D0CDB7DEB79C838B83A0
:103670008B819C819A83898389819A810E94E40F3E
:103680000F900F900F900F90CF91DF910895DF93DF
:10369000CF93CDB7DEB727970FB6F894DEBF0FBE36
:1036A000CDBF9C838B837E836D834F831A82EB8196
:1036B000FC81828D8983EB81FC81848D882309F4D0
:1036C0007DC08F81882399F5EB81FC8162817381B4
:1036D000EB81FC81848D482F50E02D813E81CB0110
:1036E000B9010E94FF31EB81FC8122813381EB81A2
:1036F000FC81848D882F90E0820F931FEB81FC81E9
:1037000093838283EB81FC8122813381EB81FC8175
:10371000848195812817390708F450C0EB81FC811A
:1037200080819181EB81FC819383828347C0EB810F
:10373000FC8166817781EB81FC81848D482F50E08C
:103740002D813E81CB01B9010E94FF31EB81FC81CB
:1037500026813781EB81FC81848D882F90E09095C4
:1037600081959F4F820F931FEB81FC819783868306
:10377000EB81FC8126813781EB81FC818081918105
:103780002817390790F4EB81FC8124813581EB8186
:10379000FC81848D882F90E0909581959F4F820FBA
:1037A000931FEB81FC81978386838F81823031F474
:1037B0008981882319F089818150898389818F5F6C
:1037C000EB81FC81828F8A8127960FB6F894DEBF49
:1037D0000FBECDBFCF91DF910895DF93CF9300D07F
:1037E00000D0CDB7DEB79A8389837C836B83E98170
:1037F000FA81848D882389F1E981FA8126813781D4
:10380000E981FA81848D882F90E0820F931FE981EE
:10381000FA8197838683E981FA8126813781E9815C
:10382000FA81848195812817390740F0E981FA816E
:1038300080819181E981FA8197838683E981FA8188
:1038400046815781E981FA81848D282F30E08B8170
:103850009C81BA01A9010E94FF310F900F900F9037
:103860000F90CF91DF910895DF93CF9300D000D0D8
:10387000CDB7DEB79C838B830FB6F8940F92EB81A4
:10388000FC81868D8A8311C0EB81FC81818988232C
:1038900079F08B819C8141960E94242B882311F022
:1038A0000E94902C8A8181508A838A81181664F341
:1038B000EB81FC818FEF868F0F900FBE0FB6F894CF
:1038C0000F92EB81FC81858D898311C0EB81FC8196
:1038D0008085882379F08B819C8108960E94242B17
:1038E000882311F00E94902C8981815089838981DD
:1038F000181664F3EB81FC818FEF858F0F900FBE5C
:103900000F900F900F900F90CF91DF910895DF935C
:10391000CF9300D00F92CDB7DEB79B838A830FB6CB
:10392000F8940F92EA81FB81828D882319F481E05B
:10393000898301C019820F900FBE89810F900F906B
:103940000F90CF91DF910895DF93CF9300D000D0F7
:103950000F92CDB7DEB79D838C838C819D819A8336
:103960008983E981FA81828D882319F481E08B8330
:1039700001C01B828B810F900F900F900F900F90C2
:10398000CF91DF910895DF93CF9300D00F92CDB701
:10399000DEB79B838A830FB6F8940F92EA81FB818E
:1039A000928DEA81FB81838D981719F481E08983D8
:1039B00001C019820F900FBE89810F900F900F9058
:1039C000CF91DF910895DF93CF9300D000D00F9275
:1039D000CDB7DEB79D838C838C819D819A8389834B
:1039E000E981FA81928DE981FA81838D981719F422
:1039F00081E08B8301C01B828B810F900F900F9011
:103A00000F900F90CF91DF9108950F93DF93CF9395
:103A1000CDB7DEB728970FB6F894DEBF0FBECDBF87
:103A20009D838C837F836E8348878885813019F4DA
:103A300081E0898301C019828E819F81009721F4E2
:103A400081E090E09F838E838C819D8101969D8390
:103A50008C838C819D810F960E948E0F9B838A831D
:103A60008A819B81009789F06A817B818A819B8111
:103A70009C01215F3F4F4C815D81EE81FF81CB0135
:103A8000B9019F0109810E945D248A819B8128964A
:103A90000FB6F894DEBF0FBECDBFCF91DF910F916F
:103AA0000895DF93CF9300D000D0CDB7DEB79C83CD
:103AB0008B838B819C819A838983E981FA818685B6
:103AC000882F90E082709070009729F489819A8104
:103AD0000E94E40F08C089819A8160E070E04FE0A5
:103AE00050E00E9408320F900F900F900F90CF91EE
:103AF000DF9108950F93DF93CF9300D000D00F9202
:103B0000CDB7DEB79D838C838C819D819B838A8317
:103B100019820FB6F8940F92EA81FB818085918516
:103B20000097F1F4EA81FB81828593850097C1F4C7
:103B3000EA81FB8124853585EA81FB8144815581B9
:103B4000EA81FB81A681B781EA81FB81E6858A81D2
:103B50009B81B9019D010E2F0E945D2481E0898324
:103B60000F900FBE89810F900F900F900F900F90C4
:103B7000CF91DF910F910895DF93CF93CDB7DEB74B
:103B800027970FB6F894DEBF0FBECDBF9D838C8301
:103B90007F836E838C819D819B838A838E819F81AD
:103BA000009721F481E090E09F838E83EA81FB817E
:103BB000248135818E819F812817390748F0EA8159
:103BC000FB818E819F819783868381E0898301C0F9
:103BD0001982898127960FB6F894DEBF0FBECDBF3C
:103BE000CF91DF910895DF93CF9300D000D000D024
:103BF000CDB7DEB79E838D838D819E819C838B8321
:103C0000EB81FC8124813581EB81FC818081918174
:103C1000820F931F9A838983EB81FC8122813381F8
:103C200089819A81821B930B9A83898389819A81E6
:103C300001979A838983EB81FC8124813581898175
:103C40009A818217930750F0EB81FC8124813581A2
:103C500089819A81821B930B9A83898389819A81B6
:103C600026960FB6F894DEBF0FBECDBFCF91DF9181
:103C70000895DF93CF9300D000D000D0CDB7DEB74A
:103C80009E838D838D819E819C838B838B819C8180
:103C90000E9423249A83898389819A8126960FB66C
:103CA000F894DEBF0FBECDBFCF91DF910895EF92A4
:103CB000FF920F931F93DF93CF93CDB7DEB7639738
:103CC0000FB6F894DEBF0FBECDBF9D878C877F8770
:103CD0006E87598B488B3B8B2A8B8C859D8598876B
:103CE0008F831C821B82888999899A838983EF81BB
:103CF000F8858685882F90E081709070882329F060
:103D000089819A8102969A8389838A899B890097FF
:103D100009F440C0CE0109960E94EC2B0FB6F8942E
:103D20000F928F8198850E94F31D9C838B832B813A
:103D30003C8189819A812817390750F580E090E00D
:103D40000E94FC300E94552DEF81F8859387828771
:103D50000F900FBEEA89FB8960E070E080E090E0A0
:103D600020E030E040E050E000E010E07F010E9401
:103D7000052EEF81F88513861286CE0109969E01E5
:103D80002E5E3F4FB9010E94232C882339F202C0D6
:103D90000F900FBE8B819C81009731F48F819885A5
:103DA0000E94F31D9C838B838F8198852E853F8590
:103DB00048895989EB81FC81A981BA81B9019F01A8
:103DC0008D010E949C1F9E838D838D819E81009713
:103DD00039F18F8198850E9423249C01EF81F88519
:103DE0008681978128173907D8F00E948428EF81AF
:103DF000F88580859185009789F0EF81F885808529
:103E0000918540E050E060E070E020E000E010E0EC
:103E10000E94A12EEF81F885118610860E949028BD
:103E20008D819E8163960FB6F894DEBF0FBECDBF25
:103E3000CF91DF911F910F91FF90EF900895EF9236
:103E4000FF920F931F93DF93CF93CDB7DEB76197A8
:103E50000FB6F894DEBF0FBECDBF9B878A877D87E4
:103E60006C875F874E87398B288B8A859B859987DE
:103E700088878E859F859B838A83E885F9858685DB
:103E8000882F90E081709070882329F08A819B812F
:103E900002969B838A83888599850E94F31D9D8362
:103EA0008C83888599852C853D854E855F85EC8141
:103EB000FD81AA81BB81B9019F018D010E949C1FD8
:103EC0009F838E838E819F81009739F188859985A4
:103ED0000E9423249C01E885F98586819781281713
:103EE0003907D8F01982E885F98580859185009792
:103EF000A1F0E885F98580859185E889F98940E018
:103F000050E060E070E020E000E010E07F010E94FF
:103F10007E2FE885F985118610868E819F816196B6
:103F20000FB6F894DEBF0FBECDBFCF91DF911F91CA
:103F30000F91FF90EF9008950F931F93DF93CF930E
:103F4000CDB7DEB761970FB6F894DEBF0FBECDBF19
:103F50009D838C837F836E83598748873B872A871D
:103F60001D870C878A859B85009711F41B8238C0BA
:103F7000EC81FD818685882F90E08170907000979C
:103F8000D1F481E08B8328853985398B288B8A850C
:103F90009B859F878E872E853F8588899989821783
:103FA000930720F4288939893F872E878E859F853E
:103FB0009987888715C02A853B858C859D8528171C
:103FC000390768F081E08B839E01285F3F4F8C8129
:103FD0009D81B90142E050E00E94E92201C01B82AC
:103FE0008B81882361F02E813F81488559858C81A2
:103FF0009D81B9010E94E9229A83898302C01A82B5
:10400000198289819A8161960FB6F894DEBF0FBE3E
:10401000CDBFCF91DF911F910F910895EF92FF9245
:104020000F931F93DF93CF93CDB7DEB760970FB693
:10403000F894DEBF0FBECDBF9A8789877C876B87D8
:104040005E874D87388B2F8789859A8598878F83E0
:104050001E821D82EF81F8858685882F90E0817011
:104060009070882329F082E090E09A83898302C0CF
:104070001A8219828F859889009709F43DC00FB67E
:10408000F8940F928F8198850E9423249C838B83C0
:104090002B813C8189819A818217930750F080E0BF
:1040A00090E00E94FC300E94552DEF81F8859187A9
:1040B00080870F900FBE2B813C8189819A81821766
:1040C000930700F1EF85F88960E070E080E090E010
:1040D00020E030E040E050E000E010E07F010E948E
:1040E000052EEF81F885118610868F8198850E94B4
:1040F00023249C838B8306C08F8198850E94232470
:104100009C838B832B813C8189819A8182179307C1
:1041100080F58F8198852B853C854D855E85EB816B
:10412000FC81A981BA81B9019F018D010E94922170
:104130009E838D838D819E810097D9F00E94842873
:10414000EF81F88582859385009789F0EF81F88566
:104150008285938540E050E060E070E020E000E080
:1041600010E00E94A12EEF81F885138612860E942E
:1041700090288D819E8160960FB6F894DEBF0FBEA9
:10418000CDBFCF91DF911F910F91FF90EF900895D8
:10419000DF93CF93CDB7DEB72C970FB6F894DEBF81
:1041A0000FBECDBF9C878B878B859C8598878F831F
:1041B000EF81F8858685882F90E081709070882344
:1041C00061F18F8198850E9423249C838B838B814E
:1041D0009C8183309105F0F0EF81F8858081918199
:1041E0009A8389839E01275F3F4F8F819885EB815A
:1041F000FC81B90142E050E09F010E94762389854D
:104200009A859E838D83EF81F88589819A81918338
:10421000808305C01E821D8202C01E821D828D8188
:104220009E812C960FB6F894DEBF0FBECDBFCF9106
:10423000DF910895EF92FF920F931F93DF93CF9337
:10424000CDB7DEB761970FB6F894DEBF0FBECDBF16
:104250009B878A877D876C875F874E87398B288B02
:104260008A859B85998788871F821E82E885F985C4
:104270008685882F90E081709070882329F082E0F5
:1042800090E09B838A8302C01B821A82888599856D
:104290000E9423249D838C832C813D818A819B8174
:1042A0008217930780F5888599852C853D854E85F5
:1042B0005F85EC81FD81AA81BB81B9019F018D01E0
:1042C0000E9492219F838E838E819F810097D9F0D7
:1042D0001982E885F985828593850097A1F0E885A4
:1042E000F98582859385E889F98940E050E060E0AE
:1042F00070E020E000E010E07F010E947E2FE88562
:10430000F985138612868E819F8161960FB6F89487
:10431000DEBF0FBECDBFCF91DF911F910F91FF90F8
:10432000EF9008950F931F93DF93CF93CDB7DEB730
:1043300062970FB6F894DEBF0FBECDBF9A8789870C
:104340007C876B875E874D87388B2F871A8B098B0D
:1043500089899A89009791F1E985FA85808191810F
:104360009E838D83AE01495F5F4F89859A85298938
:104370003A89EF85F889BA01A9019F010E94762345
:104380008F8198859A8389832F85388989899A892D
:10439000A901481B590BCA01988B8F8729813A8143
:1043A0008D859E858217930768F4E985FA858D814E
:1043B0009E81918380831A82198204C08D859E8597
:1043C0009A8389834B855C8589859A8529813A8181
:1043D000EF85F889BA01A9019F010E9476239C8389
:1043E0008B838B819C8162960FB6F894DEBF0FBEE3
:1043F000CDBFCF91DF911F910F910895DF93CF93A0
:10440000CDB7DEB727970FB6F894DEBF0FBECDBF8E
:104410009F838E838E819F819D838C83EC81FD8120
:10442000808191819A838983EC81FD81228133810E
:1044300089819A812817390719F481E08B8301C09B
:104440001B828B8127960FB6F894DEBF0FBECDBFBF
:10445000CF91DF910895DF93CF93CDB7DEB7279744
:104460000FB6F894DEBF0FBECDBF9F838E838E81C3
:104470009F819A838983E981FA818685882F90E0DC
:1044800081709070882329F082E090E09C838B8378
:1044900002C01C821B828E819F810E94F31D9C01A1
:1044A0008B819C818217930718F081E08D8301C076
:1044B0001D828D8127960FB6F894DEBF0FBECDBF4B
:1044C000CF91DF910895EF92FF920F931F93DF93A7
:1044D000CF93CDB7DEB728970FB6F894DEBF0FBEE7
:1044E000CDBF9E838D8378876F838D819E819C83D2
:1044F0008B831982EB81FC81808591850097B9F0CF
:10450000EB81FC8180859185EF81F88540E050E06A
:1045100060E070E020E000E010E07F010E947E2F6C
:10452000EB81FC811186108681E08A8301C01A82AA
:104530008A8128960FB6F894DEBF0FBECDBFCF910B
:10454000DF911F910F91FF90EF900895EF92FF92EE
:104550000F931F93DF93CF93CDB7DEB728970FB696
:10456000F894DEBF0FBECDBF9E838D8378876F83A7
:104570008D819E819C838B831982EB81FC81828556
:1045800093850097B9F0EB81FC8182859385EF815B
:10459000F88540E050E060E070E020E000E010E0EE
:1045A0007F010E947E2FEB81FC811386128681E0C1
:1045B0008A8301C01A828A8128960FB6F894DEBFDA
:1045C0000FBECDBFCF91DF911F910F91FF90EF9064
:1045D0000895DF93CF93CDB7DEB72E970FB6F8943B
:1045E000DEBF0FBECDBF9E838D8378876F835A87D2
:1045F0004987ED81FE81828193819C838B83ED814C
:10460000FE81248135818B819C81A901481B590B36
:10461000CA0129853A853E872D879C878B874B85E4
:104620005C858D859E858417950720F42D853E85B4
:104630003C872B874B855C855A834983ED81FE81BE
:10464000248535858B819C81820F931F2F8138852E
:1046500049815A81B9010E94FF3129853A858981B2
:104660009A8182179307B0F4ED81FE816485758588
:104670002F81388589819A81A901480F591F298581
:104680003A8589819A81281B390BCB01BA01A9018E
:104690000E94FF312B813C8189859A85820F931F6F
:1046A0009C838B83ED81FE81248135818B819C816C
:1046B0008217930750F0ED81FE81248135818B8133
:1046C0009C81821B930B9C838B83ED81FE818B816C
:1046D0009C819383828389859A852E960FB6F89460
:1046E000DEBF0FBECDBFCF91DF910895DF93CF9393
:1046F000CDB7DEB766970FB6F894DEBF0FBECDBF5D
:1047000098878F837A8769875C874B873E872D8759
:104710002D853E853A8B298B4B855C85588B4F8741
:104720008F85988929893A892817390720F449897A
:104730005A89588B4F878F8598899E838D838D8169
:104740009E81009709F474C0EF81F8858081918182
:104750009A838983EF81F8852481358189819A81C3
:10476000A901481B590BCA012D813E813E8B2D8B1F
:104770009C8B8B8B4B895C898D899E8984179507CF
:1047800020F42D893E893C8B2B8B4B895C895C8383
:104790004B83EF81F8852485358589819A81A9012C
:1047A000480F591F89859A852B813C81BA01A9013F
:1047B0000E94FF312D813E818B819C81821793075E
:1047C000B0F429853A858B819C81B901680F791FE6
:1047D000EF81F885448555852D813E818B819C81B3
:1047E000281B390BCB01BA01A9010E94FF31298195
:1047F0003A818D819E81820F931F9A838983EF81F5
:10480000F8852481358189819A818217930750F038
:10481000EF81F8852481358189819A81821B930BF0
:104820009A838983EF81F88589819A819183808336
:104830008D819E8166960FB6F894DEBF0FBECDBF08
:10484000CF91DF910895DF93CF9300D000D0CDB703
:10485000DEB79C838B83EB81FC8124813581EB81E6
:10486000FC8182819381820F931F9A838983EB81DC
:10487000FC812081318189819A81821B930B9A83EB
:104880008983EB81FC812481358189819A8182171A
:10489000930750F0EB81FC812481358189819A81D5
:1048A000821B930B9A83898389819A810F900F9041
:1048B0000F900F90CF91DF9108950F93DF93CF93D7
:1048C000CDB7DEB729970FB6F894DEBF0FBECDBFC8
:1048D0009A8389837C836B835E834D8338872F83A0
:1048E000098789819A8160E070E04FE050E00E9482
:1048F0000832E981FA818B819C8195878487E981DF
:10490000FA818D819E8195838483E981FA818F81EB
:10491000988597838683E981FA8189858687299698
:104920000FB6F894DEBF0FBECDBFCF91DF910F91D0
:1049300008958F929F92AF92BF92CF92DF92EF92A3
:10494000FF920F931F93DF93CF93CDB7DEB760979E
:104950000FB6F894DEBF0FBECDBF9F838E837987DD
:1049600068875B874A873D872C870E87F88AEF86A2
:104970008A859B850E948E0F9A83898389819A817B
:104980000097B1F082E390E00E948E0F9D838C83AC
:104990008C819D81009739F0EC81FD8189819A811C
:1049A000908F878B07C089819A810E94E40F02C093
:1049B0001D821C828C819D810097E9F08A859B85F0
:1049C0009C0140E050E08E819F8168857985EC856F
:1049D000FD85AF85B889AC80BD808F01EE846D0107
:1049E000882499240E9411258C819D810E94CD25C7
:1049F00081E08B8302C08FEF8B838B8160960FB633
:104A0000F894DEBF0FBECDBFCF91DF911F910F9104
:104A1000FF90EF90DF90CF90BF90AF909F908F90DE
:104A200008958F929F92AF92BF92CF92DF92EF92B2
:104A30000F931F93DF93CF93CDB7DEB764970FB675
:104A4000F894DEBF0FBECDBF9D838C837F836E83C2
:104A5000288739874A875B871D870C87EE86D88A27
:104A6000CF86BA8AA98A9C8A8B8AE989FA8927899A
:104A7000308D888599850197820F931F9B838A8348
:104A80008E819F81009751F1198221C08981482F21
:104A900050E08981282F30E08E819F81FC01E20F58
:104AA000F31F208189899A89840F951FFC017996CB
:104AB00020838981282F30E08E819F81FC01E20FC5
:104AC000F31F8081882331F089818F5F89838981F9
:104AD0008431E0F2E989FA8914A603C0E989FA89E8
:104AE000118E8E85853010F084E08E87E989FA89F1
:104AF0008E85868B89899A8902960E94E61189891A
:104B00009A890C960E94E611E989FA8989899A891D
:104B1000918780878E85282F30E085E090E0821B8A
:104B2000930BE989FA8995878487E989FA898989C4
:104B30009A89938B828BE989FA8915A616A617A6FE
:104B400010AAE989FA8911AA8A819B812C813D8169
:104B50004C855D85B9010E940F13E989FA8991831B
:104B600080838F859889009731F0EF85F88989894E
:104B70009A899183808364960FB6F894DEBF0FBE46
:104B8000CDBFCF91DF911F910F91EF90DF90CF902C
:104B9000BF90AF909F908F900895DF93CF9300D0F8
:104BA000CDB7DEB79A8389830FB6F8940F928091C0
:104BB000AB068F5F8093AB068091A8069091A90603
:104BC000009769F489819A819093A9068093A80639
:104BD0008091AB068130B9F40E94A42C14C080915E
:104BE000AF06882381F4E091A806F091A906968982
:104BF000E981FA818689891730F089819A819093B9
:104C0000A9068093A8068091B3068F5F8093B306B0
:104C1000E981FA8196898091AE06891728F4E981A5
:104C2000FA8186898093AE06E981FA818689282FE8
:104C300030E0C901880F991F880F991F880F991FAD
:104C4000820F931FAC014754594F89819A819C016F
:104C50002E5F3F4FCA01B9010E94F6110F900FBE9F
:104C60008091AF06882361F0E091A806F091A90633
:104C70009689E981FA818689981710F40E94CE14EA
:104C80000F900F90CF91DF910895DF93CF9300D0D5
:104C900000D000D0CDB7DEB79C838B830FB6F894DD
:104CA0000F928B819C81009739F48091A806909196
:104CB000A9069E838D8304C08B819C819E838D83F6
:104CC0008D819E819A83898389819A8102960E942F
:104CD000A612E981FA8184899589009729F0898152
:104CE0009A810C960E94A6128091B3068F5F8093E2
:104CF000B3062091A8063091A90689819A8182176E
:104D0000930781F489819A819C012E5F3F4F85E052
:104D100097E0B9010E94F6118091AA068F5F8093F7
:104D2000AA060BC08091AB0681508093AB068981A7
:104D30009A810E94142D0E942A2D0F900FBE8091FF
:104D4000AF06882359F02091A8063091A9068981E1
:104D50009A818217930711F40E94CE1426960FB6FB
:104D6000F894DEBF0FBECDBFCF91DF910895DF93E2
:104D7000CF9300D00F92CDB7DEB79B838A83198281
:104D80008A819B81009751F00E9484288A819B81AF
:104D900060E00E9436310E949028898389818823AF
:104DA00011F40E94CE140F900F900F90CF91DF91CD
:104DB0000895DF93CF9300D000D000D0CDB7DEB7F9
:104DC0009C838B830FB6F8940F928B819C81009704
:104DD00039F48091A8069091A9069E838D8304C022
:104DE0008B819C819E838D838D819E819A83898313
:104DF00089819A8102960E94A612E981FA818489AA
:104E00009589009729F089819A810C960E94A612B3
:104E100089819A819C012E5F3F4F8EE097E0B90116
:104E20000E94F611E981FA8181A9813019F4E981A2
:104E3000FA8111AA0F900FBE8091AF06882339F036
:104E40000FB6F8940F920E942A2D0F900FBE20915A
:104E5000A8063091A90689819A8182179307A1F447
:104E60008091AF06882319F00E94CE140DC0909156
:104E70000E078091AB06981729F41092A90610929C
:104E8000A80602C00E94652A26960FB6F894DEBFD7
:104E90000FBECDBFCF91DF910895DF93CF9300D0A8
:104EA00000D00F92CDB7DEB79D838C831B828C819F
:104EB0009D819A838983E981FA818285938527E0A0
:104EC0008E30920781F4E981FA818489958926E000
:104ED0008C3F920741F0E981FA8184899589009796
:104EE00011F481E08B838B810F900F900F900F90C6
:104EF0000F90CF91DF910895DF93CF9300D000D032
:104F0000CDB7DEB79C838B838B819C819A83898309
:104F10002091A8063091A90689819A81821793076A
:104F200009F447C089819A81009709F442C00FB6FD
:104F3000F8940F9289819A810E944D278823B9F1B4
:104F400089819A8102960E94A612E981FA81968946
:104F50008091AE06891728F4E981FA8186898093C9
:104F6000AE06E981FA818689282F30E0C901880FD1
:104F7000991F880F991F880F991F820F931FAC01EB
:104F80004754594F89819A819C012E5F3F4FCA0136
:104F9000B9010E94F611E981FA819689E091A8068B
:104FA000F091A9068689981710F00E94CE140F90F0
:104FB0000FBE0F900F900F900F90CF91DF9108953B
:104FC000DF93CF9300D000D000D0CDB7DEB79E8363
:104FD0008D831C828D819E819B838A8319828A8125
:104FE0009B810E944D27882309F446C08091B80612
:104FF0008823C1F5EA81FB819689E091A806F091AA
:10500000A9068689981710F081E08C838A819B819C
:1050100002960E94A612EA81FB8196898091AE06D3
:10502000891728F4EA81FB8186898093AE06EA819C
:10503000FB818689282F30E0C901880F991F880FCE
:10504000991F880F991F820F931FAC014754594F26
:105050008A819B819C012E5F3F4FCA01B9010E944A
:10506000F6110AC08A819B819C01245F3F4F8CEF1F
:1050700096E0B9010E94F6118C8126960FB6F8943D
:10508000DEBF0FBECDBFCF91DF910895EF92FF92AB
:105090000F93DF93CF930F92CDB7DEB78AE99CE2EF
:1050A00027EA30E0E6EBF6E0B90146E950E020E01F
:1050B00030E000E07F010E9499248983898181305A
:1050C00081F4F8948FEF9FEF9093B5068093B40628
:1050D00081E08093AF061092AD061092AC060E945C
:1050E00092140F90CF91DF910F91FF90EF90089560
:1050F000DF93CF93CDB7DEB7F8941092AF060E943E
:10510000C714CF91DF910895DF93CF93CDB7DEB76A
:105110008091B8068F5F8093B806CF91DF91089594
:10512000DF93CF9300D000D0CDB7DEB71C821B82B7
:105130001A820FB6F8940F928091B806815080932E
:10514000B8068091B806882309F073C08091AB0639
:10515000882309F46EC045C0E0910107F091020771
:10516000868197819C838B838B819C810C960E9486
:10517000A6128B819C8102960E94A612EB81FC8173
:1051800096898091AE06891728F4EB81FC81868987
:105190008093AE06EB81FC818689282F30E0C9011F
:1051A000880F991F880F991F880F991F820F931FCF
:1051B000AC014754594F8B819C819C012E5F3F4F1E
:1051C000CA01B9010E94F611EB81FC819689E09138
:1051D000A806F091A9068689981718F081E08093B7
:1051E000B1068091FC06882309F0B6CF8B819C81A3
:1051F000009711F00E942A2D8091B0068983898141
:10520000882379F00E948029882319F081E0809317
:10521000B1068981815089838981882399F7109209
:10522000B0068091B106882321F081E08A830E9434
:10523000CE140F900FBE8A810F900F900F900F9099
:10524000CF91DF910895DF93CF9300D0CDB7DEB734
:105250000FB6F8940F928091AC069091AD069A83A8
:1052600089830F900FBE89819A810F900F90CF9103
:10527000DF910895DF93CF9300D00F92CDB7DEB7C3
:1052800019828091AC069091AD069B838A838A81B6
:105290009B810F900F900F90CF91DF910895DF9336
:1052A000CF93CDB7DEB78091AB06CF91DF91089554
:1052B000DF93CF9300D000D000D0CDB7DEB79C8372
:1052C0008B838B819C81009739F48091A806909103
:1052D000A9069E838D8304C08B819C819E838D83D0
:1052E0008D819E819A83898389819A8149962696A8
:1052F0000FB6F894DEBF0FBECDBFCF91DF910895FA
:10530000DF93CF93CDB7DEB729970FB6F894DEBF02
:105310000FBECDBF1D828091B806882309F0C0C0A2
:105320008091AC069091AD0601969C838B838B8116
:105330009C819093AD068093AC068B819C810097F5
:10534000D9F48091F8069091F9069A838983809127
:10535000FA069091FB069093F9068093F8068981EE
:105360009A819093FB068093FA068091B2068F5F34
:105370008093B2060E942A2D2091B4063091B50682
:105380008B819C818217930708F471C0E091F80625
:10539000F091F9068081882339F48FEF9FEF909385
:1053A000B5068093B40663C0E091F806F091F90663
:1053B0000580F681E02D8681978199878887E88529
:1053C000F985828193819F838E832B813C818E819D
:1053D0009F812817390738F48E819F819093B506F5
:1053E0008093B40644C08885998502960E94A612CF
:1053F000E885F98584899589009729F088859985BC
:105400000C960E94A612E885F98596898091AE06D1
:10541000891728F4E885F98586898093AE06E885A2
:10542000F9858689282F30E0C901880F991F880FD8
:10543000991F880F991F820F931FAC014754594F32
:10544000888599859C012E5F3F4FCA01B9010E9452
:10545000F611E885F9859689E091A806F091A906EC
:105460008689981708F492CF81E08D838FCFE091E1
:10547000A806F091A9068689282F30E0C901880F77
:10548000991F880F991F880F991F820F931FFC0186
:10549000E754F94F8081823040F081E08D8305C070
:1054A0008091B0068F5F8093B0068091B10688230B
:1054B00011F081E08D838D8129960FB6F894DEBFBF
:1054C0000FBECDBFCF91DF910895DF93CF9300D072
:1054D0000F92CDB7DEB78091B806882321F081E026
:1054E0008093B10659C01092B1068091AE068B83AD
:1054F00003C08B8181508B838B81282F30E0C901C1
:10550000880F991F880F991F880F991F820F931F6B
:10551000FC01E754F94F8081882359F38B81282FB0
:1055200030E0C901880F991F880F991F880F991FB4
:10553000820F931F8754994F9A838983E981FA8157
:105540000180F281E02D82819381E981FA81928349
:105550008183E981FA812181328189819A8103964F
:105560002817390759F4E981FA810180F281E02D89
:1055700082819381E981FA8192838183E981FA8131
:105580000180F281E02D868197819093A906809316
:10559000A8068B818093AE060F900F900F90CF914D
:1055A000DF910895DF93CF9300D000D0CDB7DEB761
:1055B0009A8389837C836B838091A8069091A90646
:1055C0009C01245F3F4F89819A81B9010E943A1260
:1055D0008B819C8161E00E9436310F900F900F907B
:1055E0000F90CF91DF910895DF93CF9300D000D03B
:1055F00000D0CDB7DEB79A8389837C836B835E83CB
:105600004D83E091A806F091A9068B819C8190685A
:10561000958784878091A8069091A9069C01245FB4
:105620003F4F89819A81B9010E94F6118D819E8137
:1056300061E00E94363126960FB6F894DEBF0FBEA9
:10564000CDBFCF91DF910895DF93CF9300D000D0ED
:105650000F92CDB7DEB79D838C83EC81FD810580F1
:10566000F681E02D868197819B838A838A819B8145
:105670000C960E94A6128091B806882361F58A8153
:105680009B8102960E94A612EA81FB8196898091F5
:10569000AE06891728F4EA81FB8186898093AE06DD
:1056A000EA81FB818689282F30E0C901880F991F84
:1056B000880F991F880F991F820F931FAC014754C1
:1056C000594F8A819B819C012E5F3F4FCA01B901CE
:1056D0000E94F6110AC08A819B819C01245F3F4F82
:1056E0008CEF96E0B9010E94F611EA81FB81968960
:1056F000E091A806F091A9068689891730F481E027
:10570000898381E08093B10601C0198289810F905D
:105710000F900F900F900F90CF91DF910895DF932E
:10572000CF9300D000D000D0CDB7DEB79C838B8361
:105730007E836D838D819E819068EB81FC81918356
:105740008083EB81FC81868197819A8389838B8119
:105750009C810E94A61289819A8102960E94A612BB
:10576000E981FA8196898091AE06891728F4E9814A
:10577000FA8186898093AE06E981FA818689282F8D
:1057800030E0C901880F991F880F991F880F991F52
:10579000820F931FAC014754594F89819A819C0114
:1057A0002E5F3F4FCA01B9010E94F611E981FA81CB
:1057B0009689E091A806F091A9068689891718F4C0
:1057C00081E08093B10626960FB6F894DEBF0FBE37
:1057D000CDBFCF91DF910895DF93CF9300D0CDB7A8
:1057E000DEB79A8389830FB6F8940F928091B20640
:1057F000E981FA8180838091AC069091AD06E981C0
:10580000FA81928381830F900FBE0F900F90CF91FA
:10581000DF910895DF93CF9300D0CDB7DEB79A83A1
:1058200089838091B206E981FA8180838091AC06F8
:105830009091AD06E981FA81928381830F900F9058
:10584000CF91DF910895DF93CF93CDB7DEB729973E
:105850000FB6F894DEBF0FBECDBF9F838E837987CE
:1058600068870FB6F8940F928091AC069091AD06C0
:105870009C838B83EE81FF81218132818B819C818E
:10588000821B930B9A838983E885F98580819181B6
:105890002FEF8F3F920711F41D8236C0EE81FF81FA
:1058A00090818091B206981761F0EE81FF8121818D
:1058B00032818B819C818217930718F081E08D8360
:1058C00023C0E885F9852081318189819A818217F9
:1058D0009307A0F4E885F9852081318189819A8137
:1058E000A901481B590BCA01E885F985918380837A
:1058F0008E819F810E940A2C1D8206C0E885F98551
:105900001182108281E08D830F900FBE8D812996C8
:105910000FB6F894DEBF0FBECDBFCF91DF910895D3
:10592000DF93CF93CDB7DEB781E08093B106CF91FF
:10593000DF910895DF93CF9300D0CDB7DEB79A8380
:1059400089830E94E52CFDCFDF93CF930F92CDB7D3
:10595000DEB7198213C08981282F30E0C901880F72
:10596000991F880F991F880F991F820F931F8754C3
:10597000994F0E94BC1189818F5F8983898185300D
:1059800050F386EE96E00E94BC118FEE96E00E94E6
:10599000BC118CEF96E00E94BC1185E097E00E945C
:1059A000BC118EE097E00E94BC1186EE96E09093C9
:1059B000F9068093F8068FEE96E09093FB068093AD
:1059C000FA060F90CF91DF910895DF93CF9300D027
:1059D000CDB7DEB720C00FB6F8940F92E0910A075A
:1059E000F0910B07868197819A83898389819A81B7
:1059F00002960E94A6128091AB0681508093AB065E
:105A00008091AA0681508093AA060F900FBE8981CB
:105A10009A810E94142D8091AA068823E1F60F90A6
:105A20000F90CF91DF910895DF93CF9300D0CDB742
:105A3000DEB79A838983E981FA818789908D0E94F4
:105A4000E40F89819A810E94E40F0F900F90CF910B
:105A5000DF910895DF93CF9300D0CDB7DEB7E0910B
:105A6000F806F091F9068081882339F48FEF9FEFD3
:105A70009093B5068093B40613C0E091F806F091B8
:105A8000F9060580F681E02D868197819A838983C6
:105A9000E981FA81828193819093B5068093B4065F
:105AA0000F900F90CF91DF910895DF93CF9300D0A7
:105AB000CDB7DEB78091A8069091A9069A83898315
:105AC00089819A810F900F90CF91DF910895DF9394
:105AD000CF9300D0CDB7DEB7E091A806F091A9062C
